{
  "_format": "hh-sol-artifact-1",
  "contractName": "StakingPool",
  "sourceName": "contracts/StakingPool.sol",
  "abi": [
    {
      "inputs": [
        {
          "internalType": "address",
          "name": "_tokenAddress",
          "type": "address"
        }
      ],
      "stateMutability": "nonpayable",
      "type": "constructor"
    },
    {
      "anonymous": false,
      "inputs": [],
      "name": "DepositSuccesful",
      "type": "event"
    },
    {
      "inputs": [],
      "name": "claimNftReward",
      "outputs": [],
      "stateMutability": "nonpayable",
      "type": "function"
    },
    {
      "inputs": [],
      "name": "exchangeNFTforToken",
      "outputs": [],
      "stateMutability": "nonpayable",
      "type": "function"
    },
    {
      "inputs": [],
      "name": "getContractBalance",
      "outputs": [
        {
          "internalType": "uint256",
          "name": "",
          "type": "uint256"
        }
      ],
      "stateMutability": "view",
      "type": "function"
    },
    {
      "inputs": [],
      "name": "getStakerData",
      "outputs": [
        {
          "internalType": "uint8",
          "name": "",
          "type": "uint8"
        }
      ],
      "stateMutability": "view",
      "type": "function"
    },
    {
      "inputs": [],
      "name": "owner",
      "outputs": [
        {
          "internalType": "address",
          "name": "",
          "type": "address"
        }
      ],
      "stateMutability": "view",
      "type": "function"
    },
    {
      "inputs": [
        {
          "internalType": "uint256",
          "name": "_amount",
          "type": "uint256"
        },
        {
          "internalType": "uint8",
          "name": "stakePoolId",
          "type": "uint8"
        }
      ],
      "name": "stakeInaPool",
      "outputs": [],
      "stateMutability": "nonpayable",
      "type": "function"
    }
  ],
  "bytecode": "0x608060405234801561001057600080fd5b50604051610c7f380380610c7f8339818101604052810190610032919061011c565b336000806101000a81548173ffffffffffffffffffffffffffffffffffffffff021916908373ffffffffffffffffffffffffffffffffffffffff16021790555080600160006101000a81548173ffffffffffffffffffffffffffffffffffffffff021916908373ffffffffffffffffffffffffffffffffffffffff16021790555050610149565b600080fd5b600073ffffffffffffffffffffffffffffffffffffffff82169050919050565b60006100e9826100be565b9050919050565b6100f9816100de565b811461010457600080fd5b50565b600081519050610116816100f0565b92915050565b600060208284031215610132576101316100b9565b5b600061014084828501610107565b91505092915050565b610b27806101586000396000f3fe608060405234801561001057600080fd5b50600436106100625760003560e01c80636f9fb98a146100675780637add566a146100855780638da5cb5b1461008f5780639309f8f3146100ad578063ca4c79ed146100cb578063f7481632146100d5575b600080fd5b61006f6100f1565b60405161007c91906106e1565b60405180910390f35b61008d610194565b005b610097610196565b6040516100a4919061073d565b60405180910390f35b6100b56101ba565b6040516100c29190610774565b60405180910390f35b6100d3610297565b005b6100ef60048036038101906100ea91906107ec565b610299565b005b6000600160009054906101000a900473ffffffffffffffffffffffffffffffffffffffff1673ffffffffffffffffffffffffffffffffffffffff166370a08231306040518263ffffffff1660e01b815260040161014e919061073d565b602060405180830381865afa15801561016b573d6000803e3d6000fd5b505050506040513d601f19601f8201168201806040525081019061018f9190610841565b905090565b565b60008054906101000a900473ffffffffffffffffffffffffffffffffffffffff1681565b600080600260003373ffffffffffffffffffffffffffffffffffffffff1673ffffffffffffffffffffffffffffffffffffffff1681526020019081526020016000206040518060800160405290816000820160009054906101000a900460ff1660ff1660ff168152602001600182015481526020016002820160009054906101000a900460ff161515151581526020016002820160019054906101000a900460ff16600281111561026e5761026d61086e565b5b60028111156102805761027f61086e565b5b815250509050600081600001519050809250505090565b565b60028160ff1611156102e0576040517f08c379a00000000000000000000000000000000000000000000000000000000081526004016102d7906108fa565b60405180910390fd5b6000600360003373ffffffffffffffffffffffffffffffffffffffff1673ffffffffffffffffffffffffffffffffffffffff1681526020019081526020016000205414610362576040517f08c379a000000000000000000000000000000000000000000000000000000000815260040161035990610966565b60405180910390fd5b6000600160009054906101000a900473ffffffffffffffffffffffffffffffffffffffff1673ffffffffffffffffffffffffffffffffffffffff166370a08231336040518263ffffffff1660e01b81526004016103bf919061073d565b602060405180830381865afa1580156103dc573d6000803e3d6000fd5b505050506040513d601f19601f820116820180604052508101906104009190610841565b9050828111610444576040517f08c379a000000000000000000000000000000000000000000000000000000000815260040161043b906109d2565b60405180910390fd5b600160009054906101000a900473ffffffffffffffffffffffffffffffffffffffff1673ffffffffffffffffffffffffffffffffffffffff166323b872dd3330866040518463ffffffff1660e01b81526004016104a3939291906109f2565b6020604051808303816000875af11580156104c2573d6000803e3d6000fd5b505050506040513d601f19601f820116820180604052508101906104e69190610a61565b506000806000808560ff1603610510576001925062093a80426105099190610abd565b9150600090505b60018560ff16036105355760029250621275004261052e9190610abd565b9150600190505b60028560ff160361055a5760039250621baf80426105539190610abd565b9150600290505b60405180608001604052808460ff1681526020018381526020016000151581526020018260028111156105905761058f61086e565b5b815250600260003373ffffffffffffffffffffffffffffffffffffffff1673ffffffffffffffffffffffffffffffffffffffff16815260200190815260200160002060008201518160000160006101000a81548160ff021916908360ff1602179055506020820151816001015560408201518160020160006101000a81548160ff02191690831515021790555060608201518160020160016101000a81548160ff021916908360028111156106485761064761086e565b5b021790555090505085600360003373ffffffffffffffffffffffffffffffffffffffff1673ffffffffffffffffffffffffffffffffffffffff168152602001908152602001600020819055507f25d9ed55afa3812818656834ee409877acaedea0438230e009cd1e7526ebff0760405160405180910390a1505050505050565b6000819050919050565b6106db816106c8565b82525050565b60006020820190506106f660008301846106d2565b92915050565b600073ffffffffffffffffffffffffffffffffffffffff82169050919050565b6000610727826106fc565b9050919050565b6107378161071c565b82525050565b6000602082019050610752600083018461072e565b92915050565b600060ff82169050919050565b61076e81610758565b82525050565b60006020820190506107896000830184610765565b92915050565b600080fd5b61079d816106c8565b81146107a857600080fd5b50565b6000813590506107ba81610794565b92915050565b6107c981610758565b81146107d457600080fd5b50565b6000813590506107e6816107c0565b92915050565b600080604083850312156108035761080261078f565b5b6000610811858286016107ab565b9250506020610822858286016107d7565b9150509250929050565b60008151905061083b81610794565b92915050565b6000602082840312156108575761085661078f565b5b60006108658482850161082c565b91505092915050565b7f4e487b7100000000000000000000000000000000000000000000000000000000600052602160045260246000fd5b600082825260208201905092915050565b7f496e76616c696420696400000000000000000000000000000000000000000000600082015250565b60006108e4600a8361089d565b91506108ef826108ae565b602082019050919050565b60006020820190508181036000830152610913816108d7565b9050919050565b7f796f75206861766520616c7265616479207374616b6564000000000000000000600082015250565b600061095060178361089d565b915061095b8261091a565b602082019050919050565b6000602082019050818103600083015261097f81610943565b9050919050565b7f696e73756666696369656e7420616d6f756e7420746f207374616b6500000000600082015250565b60006109bc601c8361089d565b91506109c782610986565b602082019050919050565b600060208201905081810360008301526109eb816109af565b9050919050565b6000606082019050610a07600083018661072e565b610a14602083018561072e565b610a2160408301846106d2565b949350505050565b60008115159050919050565b610a3e81610a29565b8114610a4957600080fd5b50565b600081519050610a5b81610a35565b92915050565b600060208284031215610a7757610a7661078f565b5b6000610a8584828501610a4c565b91505092915050565b7f4e487b7100000000000000000000000000000000000000000000000000000000600052601160045260246000fd5b6000610ac8826106c8565b9150610ad3836106c8565b9250828201905080821115610aeb57610aea610a8e565b5b9291505056fea264697066735822122064784e3c4378059618ec4c39a15b581aff7a2e1127d1257c56a9468b0b4b19d664736f6c63430008180033",
  "linkReferences": {},
  "deployedLinkReferences": {}
}